{
  "_format": "hh-sol-artifact-1",
  "contractName": "NftMarketPlace",
  "sourceName": "contracts/NftMarketPlace.sol",
  "abi": [
    {
      "inputs": [],
      "stateMutability": "nonpayable",
      "type": "constructor"
    },
    {
      "anonymous": false,
      "inputs": [
        {
          "indexed": true,
          "internalType": "address",
          "name": "owner",
          "type": "address"
        },
        {
          "indexed": true,
          "internalType": "address",
          "name": "approved",
          "type": "address"
        },
        {
          "indexed": true,
          "internalType": "uint256",
          "name": "tokenId",
          "type": "uint256"
        }
      ],
      "name": "Approval",
      "type": "event"
    },
    {
      "anonymous": false,
      "inputs": [
        {
          "indexed": true,
          "internalType": "address",
          "name": "owner",
          "type": "address"
        },
        {
          "indexed": true,
          "internalType": "address",
          "name": "operator",
          "type": "address"
        },
        {
          "indexed": false,
          "internalType": "bool",
          "name": "approved",
          "type": "bool"
        }
      ],
      "name": "ApprovalForAll",
      "type": "event"
    },
    {
      "anonymous": false,
      "inputs": [
        {
          "indexed": false,
          "internalType": "uint256",
          "name": "_fromTokenId",
          "type": "uint256"
        },
        {
          "indexed": false,
          "internalType": "uint256",
          "name": "_toTokenId",
          "type": "uint256"
        }
      ],
      "name": "BatchMetadataUpdate",
      "type": "event"
    },
    {
      "anonymous": false,
      "inputs": [
        {
          "indexed": false,
          "internalType": "uint256",
          "name": "_tokenId",
          "type": "uint256"
        }
      ],
      "name": "MetadataUpdate",
      "type": "event"
    },
    {
      "anonymous": false,
      "inputs": [
        {
          "indexed": false,
          "internalType": "uint256",
          "name": "tokenId",
          "type": "uint256"
        },
        {
          "indexed": false,
          "internalType": "address payable",
          "name": "seller",
          "type": "address"
        },
        {
          "indexed": false,
          "internalType": "address payable",
          "name": "owner",
          "type": "address"
        },
        {
          "indexed": false,
          "internalType": "uint256",
          "name": "price",
          "type": "uint256"
        },
        {
          "indexed": false,
          "internalType": "address[]",
          "name": "subscribers",
          "type": "address[]"
        },
        {
          "indexed": false,
          "internalType": "uint256",
          "name": "likes",
          "type": "uint256"
        },
        {
          "indexed": false,
          "internalType": "string",
          "name": "title",
          "type": "string"
        },
        {
          "indexed": false,
          "internalType": "string",
          "name": "description",
          "type": "string"
        }
      ],
      "name": "NFTStructCreated",
      "type": "event"
    },
    {
      "anonymous": false,
      "inputs": [
        {
          "indexed": true,
          "internalType": "uint256",
          "name": "tokenid",
          "type": "uint256"
        },
        {
          "indexed": false,
          "internalType": "uint64",
          "name": "expiration",
          "type": "uint64"
        }
      ],
      "name": "SubscriptionUpdate",
      "type": "event"
    },
    {
      "anonymous": false,
      "inputs": [
        {
          "indexed": true,
          "internalType": "address",
          "name": "from",
          "type": "address"
        },
        {
          "indexed": true,
          "internalType": "address",
          "name": "to",
          "type": "address"
        },
        {
          "indexed": true,
          "internalType": "uint256",
          "name": "tokenId",
          "type": "uint256"
        }
      ],
      "name": "Transfer",
      "type": "event"
    },
    {
      "inputs": [],
      "name": "addProfile",
      "outputs": [],
      "stateMutability": "nonpayable",
      "type": "function"
    },
    {
      "inputs": [
        {
          "internalType": "address",
          "name": "to",
          "type": "address"
        },
        {
          "internalType": "uint256",
          "name": "tokenId",
          "type": "uint256"
        }
      ],
      "name": "approve",
      "outputs": [],
      "stateMutability": "nonpayable",
      "type": "function"
    },
    {
      "inputs": [
        {
          "internalType": "address",
          "name": "owner",
          "type": "address"
        }
      ],
      "name": "balanceOf",
      "outputs": [
        {
          "internalType": "uint256",
          "name": "",
          "type": "uint256"
        }
      ],
      "stateMutability": "view",
      "type": "function"
    },
    {
      "inputs": [
        {
          "internalType": "uint256",
          "name": "_tokenId",
          "type": "uint256"
        }
      ],
      "name": "buySubscription",
      "outputs": [
        {
          "internalType": "bool",
          "name": "",
          "type": "bool"
        }
      ],
      "stateMutability": "payable",
      "type": "function"
    },
    {
      "inputs": [
        {
          "internalType": "uint256",
          "name": "_tokenId",
          "type": "uint256"
        }
      ],
      "name": "cancelSubscription",
      "outputs": [],
      "stateMutability": "payable",
      "type": "function"
    },
    {
      "inputs": [
        {
          "internalType": "string",
          "name": "_tokenURI",
          "type": "string"
        },
        {
          "internalType": "string",
          "name": "_title",
          "type": "string"
        },
        {
          "internalType": "string",
          "name": "_description",
          "type": "string"
        }
      ],
      "name": "createNFT",
      "outputs": [
        {
          "internalType": "uint256",
          "name": "",
          "type": "uint256"
        }
      ],
      "stateMutability": "nonpayable",
      "type": "function"
    },
    {
      "inputs": [
        {
          "internalType": "uint256",
          "name": "_tokenId",
          "type": "uint256"
        }
      ],
      "name": "expiresAt",
      "outputs": [
        {
          "internalType": "uint64",
          "name": "",
          "type": "uint64"
        }
      ],
      "stateMutability": "view",
      "type": "function"
    },
    {
      "inputs": [
        {
          "internalType": "address",
          "name": "_account",
          "type": "address"
        }
      ],
      "name": "followProfile",
      "outputs": [],
      "stateMutability": "nonpayable",
      "type": "function"
    },
    {
      "inputs": [
        {
          "internalType": "uint256",
          "name": "tokenId",
          "type": "uint256"
        }
      ],
      "name": "getApproved",
      "outputs": [
        {
          "internalType": "address",
          "name": "",
          "type": "address"
        }
      ],
      "stateMutability": "view",
      "type": "function"
    },
    {
      "inputs": [],
      "name": "getCollectables",
      "outputs": [
        {
          "components": [
            {
              "internalType": "uint256",
              "name": "tokenId",
              "type": "uint256"
            },
            {
              "internalType": "address payable",
              "name": "seller",
              "type": "address"
            },
            {
              "internalType": "address payable",
              "name": "owner",
              "type": "address"
            },
            {
              "internalType": "uint256",
              "name": "price",
              "type": "uint256"
            },
            {
              "internalType": "address[]",
              "name": "subscribers",
              "type": "address[]"
            },
            {
              "internalType": "uint256",
              "name": "likes",
              "type": "uint256"
            },
            {
              "internalType": "string",
              "name": "title",
              "type": "string"
            },
            {
              "internalType": "string",
              "name": "description",
              "type": "string"
            }
          ],
          "internalType": "struct NftMarketPlace.nftStruct[]",
          "name": "",
          "type": "tuple[]"
        }
      ],
      "stateMutability": "view",
      "type": "function"
    },
    {
      "inputs": [
        {
          "internalType": "uint256",
          "name": "_tokenId",
          "type": "uint256"
        }
      ],
      "name": "getIndividualNFT",
      "outputs": [
        {
          "components": [
            {
              "internalType": "uint256",
              "name": "tokenId",
              "type": "uint256"
            },
            {
              "internalType": "address payable",
              "name": "seller",
              "type": "address"
            },
            {
              "internalType": "address payable",
              "name": "owner",
              "type": "address"
            },
            {
              "internalType": "uint256",
              "name": "price",
              "type": "uint256"
            },
            {
              "internalType": "address[]",
              "name": "subscribers",
              "type": "address[]"
            },
            {
              "internalType": "uint256",
              "name": "likes",
              "type": "uint256"
            },
            {
              "internalType": "string",
              "name": "title",
              "type": "string"
            },
            {
              "internalType": "string",
              "name": "description",
              "type": "string"
            }
          ],
          "internalType": "struct NftMarketPlace.nftStruct",
          "name": "",
          "type": "tuple"
        }
      ],
      "stateMutability": "view",
      "type": "function"
    },
    {
      "inputs": [],
      "name": "getNFTs",
      "outputs": [
        {
          "components": [
            {
              "internalType": "uint256",
              "name": "tokenId",
              "type": "uint256"
            },
            {
              "internalType": "address payable",
              "name": "seller",
              "type": "address"
            },
            {
              "internalType": "address payable",
              "name": "owner",
              "type": "address"
            },
            {
              "internalType": "uint256",
              "name": "price",
              "type": "uint256"
            },
            {
              "internalType": "address[]",
              "name": "subscribers",
              "type": "address[]"
            },
            {
              "internalType": "uint256",
              "name": "likes",
              "type": "uint256"
            },
            {
              "internalType": "string",
              "name": "title",
              "type": "string"
            },
            {
              "internalType": "string",
              "name": "description",
              "type": "string"
            }
          ],
          "internalType": "struct NftMarketPlace.nftStruct[]",
          "name": "",
          "type": "tuple[]"
        }
      ],
      "stateMutability": "view",
      "type": "function"
    },
    {
      "inputs": [],
      "name": "getNumberOfUsers",
      "outputs": [
        {
          "internalType": "uint256",
          "name": "",
          "type": "uint256"
        }
      ],
      "stateMutability": "view",
      "type": "function"
    },
    {
      "inputs": [],
      "name": "getSubscriptions",
      "outputs": [
        {
          "components": [
            {
              "internalType": "uint256",
              "name": "tokenId",
              "type": "uint256"
            },
            {
              "internalType": "address payable",
              "name": "seller",
              "type": "address"
            },
            {
              "internalType": "address payable",
              "name": "owner",
              "type": "address"
            },
            {
              "internalType": "uint256",
              "name": "price",
              "type": "uint256"
            },
            {
              "internalType": "address[]",
              "name": "subscribers",
              "type": "address[]"
            },
            {
              "internalType": "uint256",
              "name": "likes",
              "type": "uint256"
            },
            {
              "internalType": "string",
              "name": "title",
              "type": "string"
            },
            {
              "internalType": "string",
              "name": "description",
              "type": "string"
            }
          ],
          "internalType": "struct NftMarketPlace.nftStruct[]",
          "name": "",
          "type": "tuple[]"
        }
      ],
      "stateMutability": "view",
      "type": "function"
    },
    {
      "inputs": [
        {
          "internalType": "address",
          "name": "owner",
          "type": "address"
        },
        {
          "internalType": "address",
          "name": "operator",
          "type": "address"
        }
      ],
      "name": "isApprovedForAll",
      "outputs": [
        {
          "internalType": "bool",
          "name": "",
          "type": "bool"
        }
      ],
      "stateMutability": "view",
      "type": "function"
    },
    {
      "inputs": [],
      "name": "isRenewable",
      "outputs": [
        {
          "internalType": "bool",
          "name": "",
          "type": "bool"
        }
      ],
      "stateMutability": "pure",
      "type": "function"
    },
    {
      "inputs": [
        {
          "internalType": "uint256",
          "name": "_tokenId",
          "type": "uint256"
        }
      ],
      "name": "likeSubscription",
      "outputs": [],
      "stateMutability": "nonpayable",
      "type": "function"
    },
    {
      "inputs": [],
      "name": "name",
      "outputs": [
        {
          "internalType": "string",
          "name": "",
          "type": "string"
        }
      ],
      "stateMutability": "view",
      "type": "function"
    },
    {
      "inputs": [
        {
          "internalType": "uint256",
          "name": "tokenId",
          "type": "uint256"
        }
      ],
      "name": "ownerOf",
      "outputs": [
        {
          "internalType": "address",
          "name": "",
          "type": "address"
        }
      ],
      "stateMutability": "view",
      "type": "function"
    },
    {
      "inputs": [
        {
          "internalType": "uint256",
          "name": "",
          "type": "uint256"
        }
      ],
      "name": "profiles",
      "outputs": [
        {
          "internalType": "address",
          "name": "self",
          "type": "address"
        }
      ],
      "stateMutability": "view",
      "type": "function"
    },
    {
      "inputs": [
        {
          "internalType": "uint256",
          "name": "_tokenId",
          "type": "uint256"
        },
        {
          "internalType": "uint64",
          "name": "duration",
          "type": "uint64"
        }
      ],
      "name": "renewSubscription",
      "outputs": [],
      "stateMutability": "payable",
      "type": "function"
    },
    {
      "inputs": [
        {
          "internalType": "address",
          "name": "from",
          "type": "address"
        },
        {
          "internalType": "address",
          "name": "to",
          "type": "address"
        },
        {
          "internalType": "uint256",
          "name": "tokenId",
          "type": "uint256"
        }
      ],
      "name": "safeTransferFrom",
      "outputs": [],
      "stateMutability": "nonpayable",
      "type": "function"
    },
    {
      "inputs": [
        {
          "internalType": "address",
          "name": "from",
          "type": "address"
        },
        {
          "internalType": "address",
          "name": "to",
          "type": "address"
        },
        {
          "internalType": "uint256",
          "name": "tokenId",
          "type": "uint256"
        },
        {
          "internalType": "bytes",
          "name": "data",
          "type": "bytes"
        }
      ],
      "name": "safeTransferFrom",
      "outputs": [],
      "stateMutability": "nonpayable",
      "type": "function"
    },
    {
      "inputs": [
        {
          "internalType": "uint256",
          "name": "_tokenId",
          "type": "uint256"
        },
        {
          "internalType": "uint256",
          "name": "_price",
          "type": "uint256"
        }
      ],
      "name": "sellSubscription",
      "outputs": [
        {
          "internalType": "uint256",
          "name": "",
          "type": "uint256"
        }
      ],
      "stateMutability": "nonpayable",
      "type": "function"
    },
    {
      "inputs": [
        {
          "internalType": "address",
          "name": "operator",
          "type": "address"
        },
        {
          "internalType": "bool",
          "name": "approved",
          "type": "bool"
        }
      ],
      "name": "setApprovalForAll",
      "outputs": [],
      "stateMutability": "nonpayable",
      "type": "function"
    },
    {
      "inputs": [
        {
          "internalType": "bytes4",
          "name": "interfaceId",
          "type": "bytes4"
        }
      ],
      "name": "supportsInterface",
      "outputs": [
        {
          "internalType": "bool",
          "name": "",
          "type": "bool"
        }
      ],
      "stateMutability": "view",
      "type": "function"
    },
    {
      "inputs": [],
      "name": "symbol",
      "outputs": [
        {
          "internalType": "string",
          "name": "",
          "type": "string"
        }
      ],
      "stateMutability": "view",
      "type": "function"
    },
    {
      "inputs": [
        {
          "internalType": "uint256",
          "name": "tokenId",
          "type": "uint256"
        }
      ],
      "name": "tokenURI",
      "outputs": [
        {
          "internalType": "string",
          "name": "",
          "type": "string"
        }
      ],
      "stateMutability": "view",
      "type": "function"
    },
    {
      "inputs": [
        {
          "internalType": "address",
          "name": "from",
          "type": "address"
        },
        {
          "internalType": "address",
          "name": "to",
          "type": "address"
        },
        {
          "internalType": "uint256",
          "name": "tokenId",
          "type": "uint256"
        }
      ],
      "name": "transferFrom",
      "outputs": [],
      "stateMutability": "nonpayable",
      "type": "function"
    },
    {
      "inputs": [
        {
          "internalType": "address",
          "name": "_account",
          "type": "address"
        }
      ],
      "name": "unfollowProfile",
      "outputs": [],
      "stateMutability": "view",
      "type": "function"
    },
    {
      "inputs": [
        {
          "internalType": "uint256",
          "name": "_tokenId",
          "type": "uint256"
        }
      ],
      "name": "unlikeSubscription",
      "outputs": [],
      "stateMutability": "nonpayable",
      "type": "function"
    }
  ],
  "bytecode": "0x60806040523480156200001157600080fd5b506040518060400160405280600881526020017f4e465420537562730000000000000000000000000000000000000000000000008152506040518060400160405280600381526020017f524754000000000000000000000000000000000000000000000000000000000081525081600190816200008f919062000324565b508060029081620000a1919062000324565b5050506200040b565b600081519050919050565b7f4e487b7100000000000000000000000000000000000000000000000000000000600052604160045260246000fd5b7f4e487b7100000000000000000000000000000000000000000000000000000000600052602260045260246000fd5b600060028204905060018216806200012c57607f821691505b602082108103620001425762000141620000e4565b5b50919050565b60008190508160005260206000209050919050565b60006020601f8301049050919050565b600082821b905092915050565b600060088302620001ac7fffffffffffffffffffffffffffffffffffffffffffffffffffffffffffffffff826200016d565b620001b886836200016d565b95508019841693508086168417925050509392505050565b6000819050919050565b6000819050919050565b600062000205620001ff620001f984620001d0565b620001da565b620001d0565b9050919050565b6000819050919050565b6200022183620001e4565b6200023962000230826200020c565b8484546200017a565b825550505050565b600090565b6200025062000241565b6200025d81848462000216565b505050565b5b8181101562000285576200027960008262000246565b60018101905062000263565b5050565b601f821115620002d4576200029e8162000148565b620002a9846200015d565b81016020851015620002b9578190505b620002d1620002c8856200015d565b83018262000262565b50505b505050565b600082821c905092915050565b6000620002f960001984600802620002d9565b1980831691505092915050565b6000620003148383620002e6565b9150826002028217905092915050565b6200032f82620000aa565b67ffffffffffffffff8111156200034b576200034a620000b5565b5b62000357825462000113565b6200036482828562000289565b600060209050601f8311600181146200039c576000841562000387578287015190505b62000393858262000306565b86555062000403565b601f198416620003ac8662000148565b60005b82811015620003d657848901518255600182019150602085019450602081019050620003af565b86831015620003f65784890151620003f2601f891682620002e6565b8355505b6001600288020188555050505b505050505050565b615526806200041b6000396000f3fe6080604052600436106101d85760003560e01c806366b5192d11610102578063b88d4fde11610095578063c87b56dd11610064578063c87b56dd146106b9578063c9df9081146106f6578063e985e9c51461071f578063ef1b7b131461075c576101d8565b8063b88d4fde146105fa578063baef978714610623578063c36fe3d614610653578063c7e7709d14610690576101d8565b8063776ce868116100d1578063776ce8681461054d57806395d89b41146105695780639f8e9dbc14610594578063a22cb465146105d1576101d8565b806366b5192d1461047f57806370a08231146104aa57806374bde7ea146104e75780637685631914610510576101d8565b8063212350831161017a5780633b47a9ac116101495780633b47a9ac146103c357806342842e0e146103ee5780634d009288146104175780636352211e14610442576101d8565b8063212350831461032a578063227212f21461034657806323b872dd146103715780633725f2d31461039a576101d8565b806308ffc4a9116101b657806308ffc4a914610282578063095ea7b3146102ad57806317c95709146102d65780631c62094c14610313576101d8565b806301ffc9a7146101dd57806306fdde031461021a578063081812fc14610245575b600080fd5b3480156101e957600080fd5b5061020460048036038101906101ff9190613a4c565b610799565b6040516102119190613a94565b60405180910390f35b34801561022657600080fd5b5061022f6107fa565b60405161023c9190613b3f565b60405180910390f35b34801561025157600080fd5b5061026c60048036038101906102679190613b97565b61088c565b6040516102799190613c05565b60405180910390f35b34801561028e57600080fd5b506102976108d2565b6040516102a49190613ed8565b60405180910390f35b3480156102b957600080fd5b506102d460048036038101906102cf9190613f26565b610c90565b005b3480156102e257600080fd5b506102fd60048036038101906102f89190613b97565b610da7565b60405161030a9190613f89565b60405180910390f35b34801561031f57600080fd5b50610328610dd7565b005b610344600480360381019061033f9190613b97565b610ee0565b005b34801561035257600080fd5b5061035b610f45565b6040516103689190613ed8565b60405180910390f35b34801561037d57600080fd5b5061039860048036038101906103939190613fa4565b6112a5565b005b3480156103a657600080fd5b506103c160048036038101906103bc9190613ff7565b611305565b005b3480156103cf57600080fd5b506103d86114f0565b6040516103e59190613ed8565b60405180910390f35b3480156103fa57600080fd5b5061041560048036038101906104109190613fa4565b6118b5565b005b34801561042357600080fd5b5061042c6118d5565b6040516104399190614033565b60405180910390f35b34801561044e57600080fd5b5061046960048036038101906104649190613b97565b6118eb565b6040516104769190613c05565b60405180910390f35b34801561048b57600080fd5b50610494611971565b6040516104a19190613a94565b60405180910390f35b3480156104b657600080fd5b506104d160048036038101906104cc9190613ff7565b61197a565b6040516104de9190614033565b60405180910390f35b3480156104f357600080fd5b5061050e60048036038101906105099190613b97565b611a31565b005b34801561051c57600080fd5b5061053760048036038101906105329190613b97565b611a62565b604051610544919061410c565b60405180910390f35b6105676004803603810190610562919061415a565b611d0c565b005b34801561057557600080fd5b5061057e611e2a565b60405161058b9190613b3f565b60405180910390f35b3480156105a057600080fd5b506105bb60048036038101906105b691906142cf565b611ebc565b6040516105c89190614033565b60405180910390f35b3480156105dd57600080fd5b506105f860048036038101906105f391906143a2565b611f00565b005b34801561060657600080fd5b50610621600480360381019061061c9190614483565b611f16565b005b61063d60048036038101906106389190613b97565b611f78565b60405161064a9190613a94565b60405180910390f35b34801561065f57600080fd5b5061067a60048036038101906106759190613b97565b6120d4565b6040516106879190613c05565b60405180910390f35b34801561069c57600080fd5b506106b760048036038101906106b29190613ff7565b612112565b005b3480156106c557600080fd5b506106e060048036038101906106db9190613b97565b612309565b6040516106ed9190613b3f565b60405180910390f35b34801561070257600080fd5b5061071d60048036038101906107189190613b97565b61241b565b005b34801561072b57600080fd5b5061074660048036038101906107419190614506565b61244c565b6040516107539190613a94565b60405180910390f35b34801561076857600080fd5b50610783600480360381019061077e9190614546565b6124e0565b6040516107909190614033565b60405180910390f35b6000634906490660e01b7bffffffffffffffffffffffffffffffffffffffffffffffffffffffff1916827bffffffffffffffffffffffffffffffffffffffffffffffffffffffff191614806107f357506107f2826125c2565b5b9050919050565b606060018054610809906145b5565b80601f0160208091040260200160405190810160405280929190818152602001828054610835906145b5565b80156108825780601f1061085757610100808354040283529160200191610882565b820191906000526020600020905b81548152906001019060200180831161086557829003601f168201915b5050505050905090565b6000610897826126a4565b6005600083815260200190815260200160002060009054906101000a900473ffffffffffffffffffffffffffffffffffffffff169050919050565b606060006108e060086126ef565b905060606000600190505b82811015610c87576000600b60008381526020019081526020016000206004018054905090506000600190505b81811015610c72573373ffffffffffffffffffffffffffffffffffffffff16600b6000858152602001908152602001600020600401828154811061095f5761095e6145e6565b5b9060005260206000200160009054906101000a900473ffffffffffffffffffffffffffffffffffffffff1673ffffffffffffffffffffffffffffffffffffffff1603610c5f57600b600084815260200190815260200160002060405180610100016040529081600082015481526020016001820160009054906101000a900473ffffffffffffffffffffffffffffffffffffffff1673ffffffffffffffffffffffffffffffffffffffff1673ffffffffffffffffffffffffffffffffffffffff1681526020016002820160009054906101000a900473ffffffffffffffffffffffffffffffffffffffff1673ffffffffffffffffffffffffffffffffffffffff1673ffffffffffffffffffffffffffffffffffffffff1681526020016003820154815260200160048201805480602002602001604051908101604052809291908181526020018280548015610b0957602002820191906000526020600020905b8160009054906101000a900473ffffffffffffffffffffffffffffffffffffffff1673ffffffffffffffffffffffffffffffffffffffff1681526020019060010190808311610abf575b5050505050815260200160058201548152602001600682018054610b2c906145b5565b80601f0160208091040260200160405190810160405280929190818152602001828054610b58906145b5565b8015610ba55780601f10610b7a57610100808354040283529160200191610ba5565b820191906000526020600020905b815481529060010190602001808311610b8857829003601f168201915b50505050508152602001600782018054610bbe906145b5565b80601f0160208091040260200160405190810160405280929190818152602001828054610bea906145b5565b8015610c375780601f10610c0c57610100808354040283529160200191610c37565b820191906000526020600020905b815481529060010190602001808311610c1a57829003601f168201915b505050505081525050848481518110610c5357610c526145e6565b5b60200260200101819052505b8080610c6a90614644565b915050610918565b50508080610c7f90614644565b9150506108eb565b50809250505090565b6000610c9b826118eb565b90508073ffffffffffffffffffffffffffffffffffffffff168373ffffffffffffffffffffffffffffffffffffffff1603610d0b576040517f08c379a0000000000000000000000000000000000000000000000000000000008152600401610d02906146fe565b60405180910390fd5b8073ffffffffffffffffffffffffffffffffffffffff16610d2a6126fd565b73ffffffffffffffffffffffffffffffffffffffff161480610d595750610d5881610d536126fd565b61244c565b5b610d98576040517f08c379a0000000000000000000000000000000000000000000000000000000008152600401610d8f90614790565b60405180910390fd5b610da28383612705565b505050565b600080600083815260200190815260200160002060009054906101000a900467ffffffffffffffff169050919050565b6000610de3600a6126ef565b9050600080600190505b82811015610e76573373ffffffffffffffffffffffffffffffffffffffff16600c600083815260200190815260200160002060000160009054906101000a900473ffffffffffffffffffffffffffffffffffffffff1673ffffffffffffffffffffffffffffffffffffffff1603610e6357600191505b8080610e6e90614644565b915050610ded565b5080610ed25733600c600084815260200190815260200160002060000160006101000a81548173ffffffffffffffffffffffffffffffffffffffff021916908373ffffffffffffffffffffffffffffffffffffffff1602179055505b610edc600a6127be565b5050565b60008082815260200190815260200160002060006101000a81549067ffffffffffffffff0219169055807f2ec2be2c4b90c2cf13ecb6751a24daed6bb741ae5ed3f7371aabf9402f6d62e86000604051610f3a91906147f5565b60405180910390a250565b60606000610f5360086126ef565b905060606000600190505b8281101561129c573373ffffffffffffffffffffffffffffffffffffffff16600b600083815260200190815260200160002060010160009054906101000a900473ffffffffffffffffffffffffffffffffffffffff1673ffffffffffffffffffffffffffffffffffffffff160361128957600b600082815260200190815260200160002060405180610100016040529081600082015481526020016001820160009054906101000a900473ffffffffffffffffffffffffffffffffffffffff1673ffffffffffffffffffffffffffffffffffffffff1673ffffffffffffffffffffffffffffffffffffffff1681526020016002820160009054906101000a900473ffffffffffffffffffffffffffffffffffffffff1673ffffffffffffffffffffffffffffffffffffffff1673ffffffffffffffffffffffffffffffffffffffff168152602001600382015481526020016004820180548060200260200160405190810160405280929190818152602001828054801561113357602002820191906000526020600020905b8160009054906101000a900473ffffffffffffffffffffffffffffffffffffffff1673ffffffffffffffffffffffffffffffffffffffff16815260200190600101908083116110e9575b5050505050815260200160058201548152602001600682018054611156906145b5565b80601f0160208091040260200160405190810160405280929190818152602001828054611182906145b5565b80156111cf5780601f106111a4576101008083540402835291602001916111cf565b820191906000526020600020905b8154815290600101906020018083116111b257829003601f168201915b505050505081526020016007820180546111e8906145b5565b80601f0160208091040260200160405190810160405280929190818152602001828054611214906145b5565b80156112615780601f1061123657610100808354040283529160200191611261565b820191906000526020600020905b81548152906001019060200180831161124457829003601f168201915b50505050508152505082828151811061127d5761127c6145e6565b5b60200260200101819052505b808061129490614644565b915050610f5e565b50809250505090565b6112b66112b06126fd565b826127d4565b6112f5576040517f08c379a00000000000000000000000000000000000000000000000000000000081526004016112ec90614882565b60405180910390fd5b611300838383612869565b505050565b6000611311600a6126ef565b90506000600190505b818110156114eb576113fd600c600083815260200190815260200160002060000160009054906101000a900473ffffffffffffffffffffffffffffffffffffffff16600c60008481526020019081526020016000206001018054806020026020016040519081016040528092919081815260200182805480156113f257602002820191906000526020600020905b8160009054906101000a900473ffffffffffffffffffffffffffffffffffffffff1673ffffffffffffffffffffffffffffffffffffffff16815260200190600101908083116113a8575b505050505085612b62565b6114d8600c600083815260200190815260200160002060000160009054906101000a900473ffffffffffffffffffffffffffffffffffffffff16600c60008481526020019081526020016000206002018054806020026020016040519081016040528092919081815260200182805480156114cd57602002820191906000526020600020905b8160009054906101000a900473ffffffffffffffffffffffffffffffffffffffff1673ffffffffffffffffffffffffffffffffffffffff1681526020019060010190808311611483575b505050505033612c48565b80806114e390614644565b91505061131a565b505050565b606060006114fe60096126ef565b9050600061150c60086126ef565b905060008267ffffffffffffffff81111561152a576115296141a4565b5b60405190808252806020026020018201604052801561156357816020015b6115506138c8565b8152602001906001900390816115485790505b5090506000600190505b828110156118ab573073ffffffffffffffffffffffffffffffffffffffff16600b600083815260200190815260200160002060020160009054906101000a900473ffffffffffffffffffffffffffffffffffffffff1673ffffffffffffffffffffffffffffffffffffffff160361189857600b600082815260200190815260200160002060405180610100016040529081600082015481526020016001820160009054906101000a900473ffffffffffffffffffffffffffffffffffffffff1673ffffffffffffffffffffffffffffffffffffffff1673ffffffffffffffffffffffffffffffffffffffff1681526020016002820160009054906101000a900473ffffffffffffffffffffffffffffffffffffffff1673ffffffffffffffffffffffffffffffffffffffff1673ffffffffffffffffffffffffffffffffffffffff168152602001600382015481526020016004820180548060200260200160405190810160405280929190818152602001828054801561174257602002820191906000526020600020905b8160009054906101000a900473ffffffffffffffffffffffffffffffffffffffff1673ffffffffffffffffffffffffffffffffffffffff16815260200190600101908083116116f8575b5050505050815260200160058201548152602001600682018054611765906145b5565b80601f0160208091040260200160405190810160405280929190818152602001828054611791906145b5565b80156117de5780601f106117b3576101008083540402835291602001916117de565b820191906000526020600020905b8154815290600101906020018083116117c157829003601f168201915b505050505081526020016007820180546117f7906145b5565b80601f0160208091040260200160405190810160405280929190818152602001828054611823906145b5565b80156118705780601f1061184557610100808354040283529160200191611870565b820191906000526020600020905b81548152906001019060200180831161185357829003601f168201915b50505050508152505082828151811061188c5761188b6145e6565b5b60200260200101819052505b80806118a390614644565b91505061156d565b5080935050505090565b6118d083838360405180602001604052806000815250611f16565b505050565b6000806118e2600a6126ef565b90508091505090565b6000806118f783612d2e565b9050600073ffffffffffffffffffffffffffffffffffffffff168173ffffffffffffffffffffffffffffffffffffffff1603611968576040517f08c379a000000000000000000000000000000000000000000000000000000000815260040161195f906148ee565b60405180910390fd5b80915050919050565b60006001905090565b60008073ffffffffffffffffffffffffffffffffffffffff168273ffffffffffffffffffffffffffffffffffffffff16036119ea576040517f08c379a00000000000000000000000000000000000000000000000000000000081526004016119e190614980565b60405180910390fd5b600460008373ffffffffffffffffffffffffffffffffffffffff1673ffffffffffffffffffffffffffffffffffffffff168152602001908152602001600020549050919050565b6001600b60008381526020019081526020016000206005016000828254611a5891906149a0565b9250508190555050565b611a6a6138c8565b600b600083815260200190815260200160002060405180610100016040529081600082015481526020016001820160009054906101000a900473ffffffffffffffffffffffffffffffffffffffff1673ffffffffffffffffffffffffffffffffffffffff1673ffffffffffffffffffffffffffffffffffffffff1681526020016002820160009054906101000a900473ffffffffffffffffffffffffffffffffffffffff1673ffffffffffffffffffffffffffffffffffffffff1673ffffffffffffffffffffffffffffffffffffffff1681526020016003820154815260200160048201805480602002602001604051908101604052809291908181526020018280548015611bce57602002820191906000526020600020905b8160009054906101000a900473ffffffffffffffffffffffffffffffffffffffff1673ffffffffffffffffffffffffffffffffffffffff1681526020019060010190808311611b84575b5050505050815260200160058201548152602001600682018054611bf1906145b5565b80601f0160208091040260200160405190810160405280929190818152602001828054611c1d906145b5565b8015611c6a5780601f10611c3f57610100808354040283529160200191611c6a565b820191906000526020600020905b815481529060010190602001808311611c4d57829003601f168201915b50505050508152602001600782018054611c83906145b5565b80601f0160208091040260200160405190810160405280929190818152602001828054611caf906145b5565b8015611cfc5780601f10611cd157610100808354040283529160200191611cfc565b820191906000526020600020905b815481529060010190602001808311611cdf57829003601f168201915b5050505050815250509050919050565b600080600084815260200190815260200160002060009054906101000a900467ffffffffffffffff1690506000808267ffffffffffffffff1603611d5d578242611d5691906149d4565b9050611db3565b611d65611971565b611da4576040517f08c379a0000000000000000000000000000000000000000000000000000000008152600401611d9b90614a5c565b60405180910390fd5b8282611db091906149d4565b90505b8060008086815260200190815260200160002060006101000a81548167ffffffffffffffff021916908367ffffffffffffffff160217905550837f2ec2be2c4b90c2cf13ecb6751a24daed6bb741ae5ed3f7371aabf9402f6d62e882604051611e1c9190613f89565b60405180910390a250505050565b606060028054611e39906145b5565b80601f0160208091040260200160405190810160405280929190818152602001828054611e65906145b5565b8015611eb25780601f10611e8757610100808354040283529160200191611eb2565b820191906000526020600020905b815481529060010190602001808311611e9557829003601f168201915b5050505050905090565b6000611ec860086127be565b6000611ed460086126ef565b9050611ee03382612d6b565b611eea8186612f88565b611ef581858561302c565b809150509392505050565b611f12611f0b6126fd565b83836131ff565b5050565b611f27611f216126fd565b836127d4565b611f66576040517f08c379a0000000000000000000000000000000000000000000000000000000008152600401611f5d90614882565b60405180910390fd5b611f728484848461336b565b50505050565b600080600b6000848152602001908152602001600020600301549050803414611fd6576040517f08c379a0000000000000000000000000000000000000000000000000000000008152600401611fcd90614aee565b60405180910390fd5b600b600084815260200190815260200160002060010160009054906101000a900473ffffffffffffffffffffffffffffffffffffffff1673ffffffffffffffffffffffffffffffffffffffff166108fc349081150290604051600060405180830381858888f19350505050158015612052573d6000803e3d6000fd5b50600b6000848152602001908152602001600020600401339080600181540180825580915050600190039060005260206000200160009091909190916101000a81548173ffffffffffffffffffffffffffffffffffffffff021916908373ffffffffffffffffffffffffffffffffffffffff1602179055506001915050919050565b600c6020528060005260406000206000915090508060000160009054906101000a900473ffffffffffffffffffffffffffffffffffffffff16905081565b600061211e600a6126ef565b90506000600190505b81811015612304573373ffffffffffffffffffffffffffffffffffffffff16600c600083815260200190815260200160002060000160009054906101000a900473ffffffffffffffffffffffffffffffffffffffff1673ffffffffffffffffffffffffffffffffffffffff160361221057600c6000828152602001908152602001600020600201839080600181540180825580915050600190039060005260206000200160009091909190916101000a81548173ffffffffffffffffffffffffffffffffffffffff021916908373ffffffffffffffffffffffffffffffffffffffff1602179055505b8273ffffffffffffffffffffffffffffffffffffffff16600c600083815260200190815260200160002060000160009054906101000a900473ffffffffffffffffffffffffffffffffffffffff1673ffffffffffffffffffffffffffffffffffffffff16036122f157600c6000828152602001908152602001600020600101339080600181540180825580915050600190039060005260206000200160009091909190916101000a81548173ffffffffffffffffffffffffffffffffffffffff021916908373ffffffffffffffffffffffffffffffffffffffff1602179055505b80806122fc90614644565b915050612127565b505050565b6060612314826126a4565b6000600760008481526020019081526020016000208054612334906145b5565b80601f0160208091040260200160405190810160405280929190818152602001828054612360906145b5565b80156123ad5780601f10612382576101008083540402835291602001916123ad565b820191906000526020600020905b81548152906001019060200180831161239057829003601f168201915b5050505050905060006123be6133c7565b905060008151036123d3578192505050612416565b6000825111156124085780826040516020016123f0929190614b4a565b60405160208183030381529060405292505050612416565b612411846133de565b925050505b919050565b6001600b600083815260200190815260200160002060050160008282546124429190614b6e565b9250508190555050565b6000600660008473ffffffffffffffffffffffffffffffffffffffff1673ffffffffffffffffffffffffffffffffffffffff16815260200190815260200160002060008373ffffffffffffffffffffffffffffffffffffffff1673ffffffffffffffffffffffffffffffffffffffff16815260200190815260200160002060009054906101000a900460ff16905092915050565b60006124ec33846127d4565b61252b576040517f08c379a000000000000000000000000000000000000000000000000000000000815260040161252290614bee565b60405180910390fd5b612536333085612869565b81600b60008581526020019081526020016000206003018190555030600b600085815260200190815260200160002060020160006101000a81548173ffffffffffffffffffffffffffffffffffffffff021916908373ffffffffffffffffffffffffffffffffffffffff1602179055506125b060096127be565b6125ba60096126ef565b905092915050565b60007f80ac58cd000000000000000000000000000000000000000000000000000000007bffffffffffffffffffffffffffffffffffffffffffffffffffffffff1916827bffffffffffffffffffffffffffffffffffffffffffffffffffffffff1916148061268d57507f5b5e139f000000000000000000000000000000000000000000000000000000007bffffffffffffffffffffffffffffffffffffffffffffffffffffffff1916827bffffffffffffffffffffffffffffffffffffffffffffffffffffffff1916145b8061269d575061269c82613446565b5b9050919050565b6126ad816134b0565b6126ec576040517f08c379a00000000000000000000000000000000000000000000000000000000081526004016126e3906148ee565b60405180910390fd5b50565b600081600001549050919050565b600033905090565b816005600083815260200190815260200160002060006101000a81548173ffffffffffffffffffffffffffffffffffffffff021916908373ffffffffffffffffffffffffffffffffffffffff160217905550808273ffffffffffffffffffffffffffffffffffffffff16612778836118eb565b73ffffffffffffffffffffffffffffffffffffffff167f8c5be1e5ebec7d5bd14f71427d1e84f3dd0314c0f7b2291e5b200ac8c7c3b92560405160405180910390a45050565b6001816000016000828254019250508190555050565b6000806127e0836118eb565b90508073ffffffffffffffffffffffffffffffffffffffff168473ffffffffffffffffffffffffffffffffffffffff1614806128225750612821818561244c565b5b8061286057508373ffffffffffffffffffffffffffffffffffffffff166128488461088c565b73ffffffffffffffffffffffffffffffffffffffff16145b91505092915050565b8273ffffffffffffffffffffffffffffffffffffffff16612889826118eb565b73ffffffffffffffffffffffffffffffffffffffff16146128df576040517f08c379a00000000000000000000000000000000000000000000000000000000081526004016128d690614c80565b60405180910390fd5b600073ffffffffffffffffffffffffffffffffffffffff168273ffffffffffffffffffffffffffffffffffffffff160361294e576040517f08c379a000000000000000000000000000000000000000000000000000000000815260040161294590614d12565b60405180910390fd5b61295b83838360016134f1565b8273ffffffffffffffffffffffffffffffffffffffff1661297b826118eb565b73ffffffffffffffffffffffffffffffffffffffff16146129d1576040517f08c379a00000000000000000000000000000000000000000000000000000000081526004016129c890614c80565b60405180910390fd5b6005600082815260200190815260200160002060006101000a81549073ffffffffffffffffffffffffffffffffffffffff02191690556001600460008573ffffffffffffffffffffffffffffffffffffffff1673ffffffffffffffffffffffffffffffffffffffff168152602001908152602001600020600082825403925050819055506001600460008473ffffffffffffffffffffffffffffffffffffffff1673ffffffffffffffffffffffffffffffffffffffff16815260200190815260200160002060008282540192505081905550816003600083815260200190815260200160002060006101000a81548173ffffffffffffffffffffffffffffffffffffffff021916908373ffffffffffffffffffffffffffffffffffffffff160217905550808273ffffffffffffffffffffffffffffffffffffffff168473ffffffffffffffffffffffffffffffffffffffff167fddf252ad1be2c89b69c2b068fc378daa952ba7f163c4a11628f55a4df523b3ef60405160405180910390a4612b5d83838360016134f7565b505050565b8073ffffffffffffffffffffffffffffffffffffffff168373ffffffffffffffffffffffffffffffffffffffff1603612c435760008290506000600190505b8151811015612c40573373ffffffffffffffffffffffffffffffffffffffff16828281518110612bd457612bd36145e6565b5b602002602001015173ffffffffffffffffffffffffffffffffffffffff1603612c2d57818181518110612c0a57612c096145e6565b5b60200260200101600073ffffffffffffffffffffffffffffffffffffffff168152505b8080612c3890614644565b915050612ba1565b50505b505050565b8073ffffffffffffffffffffffffffffffffffffffff168373ffffffffffffffffffffffffffffffffffffffff1603612d295760008290506000600190505b8151811015612d26578273ffffffffffffffffffffffffffffffffffffffff16828281518110612cba57612cb96145e6565b5b602002602001015173ffffffffffffffffffffffffffffffffffffffff1603612d1357818181518110612cf057612cef6145e6565b5b60200260200101600073ffffffffffffffffffffffffffffffffffffffff168152505b8080612d1e90614644565b915050612c87565b50505b505050565b60006003600083815260200190815260200160002060009054906101000a900473ffffffffffffffffffffffffffffffffffffffff169050919050565b600073ffffffffffffffffffffffffffffffffffffffff168273ffffffffffffffffffffffffffffffffffffffff1603612dda576040517f08c379a0000000000000000000000000000000000000000000000000000000008152600401612dd190614d7e565b60405180910390fd5b612de3816134b0565b15612e23576040517f08c379a0000000000000000000000000000000000000000000000000000000008152600401612e1a90614dea565b60405180910390fd5b612e316000838360016134f1565b612e3a816134b0565b15612e7a576040517f08c379a0000000000000000000000000000000000000000000000000000000008152600401612e7190614dea565b60405180910390fd5b6001600460008473ffffffffffffffffffffffffffffffffffffffff1673ffffffffffffffffffffffffffffffffffffffff16815260200190815260200160002060008282540192505081905550816003600083815260200190815260200160002060006101000a81548173ffffffffffffffffffffffffffffffffffffffff021916908373ffffffffffffffffffffffffffffffffffffffff160217905550808273ffffffffffffffffffffffffffffffffffffffff16600073ffffffffffffffffffffffffffffffffffffffff167fddf252ad1be2c89b69c2b068fc378daa952ba7f163c4a11628f55a4df523b3ef60405160405180910390a4612f846000838360016134f7565b5050565b612f91826134b0565b612fd0576040517f08c379a0000000000000000000000000000000000000000000000000000000008152600401612fc790614e7c565b60405180910390fd5b80600760008481526020019081526020016000209081612ff0919061503e565b507ff8e1a15aba9398e019f0b49df1a4fde98ee17ae345cb5f6b5e2c27f5033e8ce7826040516130209190614033565b60405180910390a15050565b82600b60008581526020019081526020016000206000018190555033600b600085815260200190815260200160002060010160006101000a81548173ffffffffffffffffffffffffffffffffffffffff021916908373ffffffffffffffffffffffffffffffffffffffff16021790555033600b600085815260200190815260200160002060020160006101000a81548173ffffffffffffffffffffffffffffffffffffffff021916908373ffffffffffffffffffffffffffffffffffffffff1602179055506000600b60008581526020019081526020016000206003018190555060405180602001604052803373ffffffffffffffffffffffffffffffffffffffff1673ffffffffffffffffffffffffffffffffffffffff16815250600b600085815260200190815260200160002060040190600161316c929190613939565b506001600b6000858152602001908152602001600020600501819055507f60242721507efd5fd2ea8d739ebe886d616474e90744c917ce1b18f20d1108e28333336000600b6000898152602001908152602001600020600401600b60008a81526020019081526020016000206005015488886040516131f298979695949392919061524d565b60405180910390a1505050565b8173ffffffffffffffffffffffffffffffffffffffff168373ffffffffffffffffffffffffffffffffffffffff160361326d576040517f08c379a00000000000000000000000000000000000000000000000000000000081526004016132649061532c565b60405180910390fd5b80600660008573ffffffffffffffffffffffffffffffffffffffff1673ffffffffffffffffffffffffffffffffffffffff16815260200190815260200160002060008473ffffffffffffffffffffffffffffffffffffffff1673ffffffffffffffffffffffffffffffffffffffff16815260200190815260200160002060006101000a81548160ff0219169083151502179055508173ffffffffffffffffffffffffffffffffffffffff168373ffffffffffffffffffffffffffffffffffffffff167f17307eab39ab6107e8899845ad3d59bd9653f200f220920489ca2b5937696c318360405161335e9190613a94565b60405180910390a3505050565b613376848484612869565b613382848484846134fd565b6133c1576040517f08c379a00000000000000000000000000000000000000000000000000000000081526004016133b8906153be565b60405180910390fd5b50505050565b606060405180602001604052806000815250905090565b60606133e9826126a4565b60006133f36133c7565b90506000815111613413576040518060200160405280600081525061343e565b8061341d84613684565b60405160200161342e929190614b4a565b6040516020818303038152906040525b915050919050565b60007f01ffc9a7000000000000000000000000000000000000000000000000000000007bffffffffffffffffffffffffffffffffffffffffffffffffffffffff1916827bffffffffffffffffffffffffffffffffffffffffffffffffffffffff1916149050919050565b60008073ffffffffffffffffffffffffffffffffffffffff166134d283612d2e565b73ffffffffffffffffffffffffffffffffffffffff1614159050919050565b50505050565b50505050565b600061351e8473ffffffffffffffffffffffffffffffffffffffff16613752565b15613677578373ffffffffffffffffffffffffffffffffffffffff1663150b7a026135476126fd565b8786866040518563ffffffff1660e01b81526004016135699493929190615433565b6020604051808303816000875af19250505080156135a557506040513d601f19601f820116820180604052508101906135a29190615494565b60015b613627573d80600081146135d5576040519150601f19603f3d011682016040523d82523d6000602084013e6135da565b606091505b50600081510361361f576040517f08c379a0000000000000000000000000000000000000000000000000000000008152600401613616906153be565b60405180910390fd5b805181602001fd5b63150b7a0260e01b7bffffffffffffffffffffffffffffffffffffffffffffffffffffffff1916817bffffffffffffffffffffffffffffffffffffffffffffffffffffffff19161491505061367c565b600190505b949350505050565b60606000600161369384613775565b01905060008167ffffffffffffffff8111156136b2576136b16141a4565b5b6040519080825280601f01601f1916602001820160405280156136e45781602001600182028036833780820191505090505b509050600082602001820190505b600115613747578080600190039150507f3031323334353637383961626364656600000000000000000000000000000000600a86061a8153600a858161373b5761373a6154c1565b5b049450600085036136f2575b819350505050919050565b6000808273ffffffffffffffffffffffffffffffffffffffff163b119050919050565b600080600090507a184f03e93ff9f4daa797ed6e38ed64bf6a1f01000000000000000083106137d3577a184f03e93ff9f4daa797ed6e38ed64bf6a1f01000000000000000083816137c9576137c86154c1565b5b0492506040810190505b6d04ee2d6d415b85acef81000000008310613810576d04ee2d6d415b85acef81000000008381613806576138056154c1565b5b0492506020810190505b662386f26fc10000831061383f57662386f26fc100008381613835576138346154c1565b5b0492506010810190505b6305f5e1008310613868576305f5e100838161385e5761385d6154c1565b5b0492506008810190505b612710831061388d576127108381613883576138826154c1565b5b0492506004810190505b606483106138b057606483816138a6576138a56154c1565b5b0492506002810190505b600a83106138bf576001810190505b80915050919050565b60405180610100016040528060008152602001600073ffffffffffffffffffffffffffffffffffffffff168152602001600073ffffffffffffffffffffffffffffffffffffffff16815260200160008152602001606081526020016000815260200160608152602001606081525090565b8280548282559060005260206000209081019282156139b2579160200282015b828111156139b15782518260006101000a81548173ffffffffffffffffffffffffffffffffffffffff021916908373ffffffffffffffffffffffffffffffffffffffff16021790555091602001919060010190613959565b5b5090506139bf91906139c3565b5090565b5b808211156139dc5760008160009055506001016139c4565b5090565b6000604051905090565b600080fd5b600080fd5b60007fffffffff0000000000000000000000000000000000000000000000000000000082169050919050565b613a29816139f4565b8114613a3457600080fd5b50565b600081359050613a4681613a20565b92915050565b600060208284031215613a6257613a616139ea565b5b6000613a7084828501613a37565b91505092915050565b60008115159050919050565b613a8e81613a79565b82525050565b6000602082019050613aa96000830184613a85565b92915050565b600081519050919050565b600082825260208201905092915050565b60005b83811015613ae9578082015181840152602081019050613ace565b60008484015250505050565b6000601f19601f8301169050919050565b6000613b1182613aaf565b613b1b8185613aba565b9350613b2b818560208601613acb565b613b3481613af5565b840191505092915050565b60006020820190508181036000830152613b598184613b06565b905092915050565b6000819050919050565b613b7481613b61565b8114613b7f57600080fd5b50565b600081359050613b9181613b6b565b92915050565b600060208284031215613bad57613bac6139ea565b5b6000613bbb84828501613b82565b91505092915050565b600073ffffffffffffffffffffffffffffffffffffffff82169050919050565b6000613bef82613bc4565b9050919050565b613bff81613be4565b82525050565b6000602082019050613c1a6000830184613bf6565b92915050565b600081519050919050565b600082825260208201905092915050565b6000819050602082019050919050565b613c5581613b61565b82525050565b6000613c6682613bc4565b9050919050565b613c7681613c5b565b82525050565b600081519050919050565b600082825260208201905092915050565b6000819050602082019050919050565b613cb181613be4565b82525050565b6000613cc38383613ca8565b60208301905092915050565b6000602082019050919050565b6000613ce782613c7c565b613cf18185613c87565b9350613cfc83613c98565b8060005b83811015613d2d578151613d148882613cb7565b9750613d1f83613ccf565b925050600181019050613d00565b5085935050505092915050565b600082825260208201905092915050565b6000613d5682613aaf565b613d608185613d3a565b9350613d70818560208601613acb565b613d7981613af5565b840191505092915050565b600061010083016000830151613d9d6000860182613c4c565b506020830151613db06020860182613c6d565b506040830151613dc36040860182613c6d565b506060830151613dd66060860182613c4c565b5060808301518482036080860152613dee8282613cdc565b91505060a0830151613e0360a0860182613c4c565b5060c083015184820360c0860152613e1b8282613d4b565b91505060e083015184820360e0860152613e358282613d4b565b9150508091505092915050565b6000613e4e8383613d84565b905092915050565b6000602082019050919050565b6000613e6e82613c20565b613e788185613c2b565b935083602082028501613e8a85613c3c565b8060005b85811015613ec65784840389528151613ea78582613e42565b9450613eb283613e56565b925060208a01995050600181019050613e8e565b50829750879550505050505092915050565b60006020820190508181036000830152613ef28184613e63565b905092915050565b613f0381613be4565b8114613f0e57600080fd5b50565b600081359050613f2081613efa565b92915050565b60008060408385031215613f3d57613f3c6139ea565b5b6000613f4b85828601613f11565b9250506020613f5c85828601613b82565b9150509250929050565b600067ffffffffffffffff82169050919050565b613f8381613f66565b82525050565b6000602082019050613f9e6000830184613f7a565b92915050565b600080600060608486031215613fbd57613fbc6139ea565b5b6000613fcb86828701613f11565b9350506020613fdc86828701613f11565b9250506040613fed86828701613b82565b9150509250925092565b60006020828403121561400d5761400c6139ea565b5b600061401b84828501613f11565b91505092915050565b61402d81613b61565b82525050565b60006020820190506140486000830184614024565b92915050565b6000610100830160008301516140676000860182613c4c565b50602083015161407a6020860182613c6d565b50604083015161408d6040860182613c6d565b5060608301516140a06060860182613c4c565b50608083015184820360808601526140b88282613cdc565b91505060a08301516140cd60a0860182613c4c565b5060c083015184820360c08601526140e58282613d4b565b91505060e083015184820360e08601526140ff8282613d4b565b9150508091505092915050565b60006020820190508181036000830152614126818461404e565b905092915050565b61413781613f66565b811461414257600080fd5b50565b6000813590506141548161412e565b92915050565b60008060408385031215614171576141706139ea565b5b600061417f85828601613b82565b925050602061419085828601614145565b9150509250929050565b600080fd5b600080fd5b7f4e487b7100000000000000000000000000000000000000000000000000000000600052604160045260246000fd5b6141dc82613af5565b810181811067ffffffffffffffff821117156141fb576141fa6141a4565b5b80604052505050565b600061420e6139e0565b905061421a82826141d3565b919050565b600067ffffffffffffffff82111561423a576142396141a4565b5b61424382613af5565b9050602081019050919050565b82818337600083830152505050565b600061427261426d8461421f565b614204565b90508281526020810184848401111561428e5761428d61419f565b5b614299848285614250565b509392505050565b600082601f8301126142b6576142b561419a565b5b81356142c684826020860161425f565b91505092915050565b6000806000606084860312156142e8576142e76139ea565b5b600084013567ffffffffffffffff811115614306576143056139ef565b5b614312868287016142a1565b935050602084013567ffffffffffffffff811115614333576143326139ef565b5b61433f868287016142a1565b925050604084013567ffffffffffffffff8111156143605761435f6139ef565b5b61436c868287016142a1565b9150509250925092565b61437f81613a79565b811461438a57600080fd5b50565b60008135905061439c81614376565b92915050565b600080604083850312156143b9576143b86139ea565b5b60006143c785828601613f11565b92505060206143d88582860161438d565b9150509250929050565b600067ffffffffffffffff8211156143fd576143fc6141a4565b5b61440682613af5565b9050602081019050919050565b6000614426614421846143e2565b614204565b9050828152602081018484840111156144425761444161419f565b5b61444d848285614250565b509392505050565b600082601f83011261446a5761446961419a565b5b813561447a848260208601614413565b91505092915050565b6000806000806080858703121561449d5761449c6139ea565b5b60006144ab87828801613f11565b94505060206144bc87828801613f11565b93505060406144cd87828801613b82565b925050606085013567ffffffffffffffff8111156144ee576144ed6139ef565b5b6144fa87828801614455565b91505092959194509250565b6000806040838503121561451d5761451c6139ea565b5b600061452b85828601613f11565b925050602061453c85828601613f11565b9150509250929050565b6000806040838503121561455d5761455c6139ea565b5b600061456b85828601613b82565b925050602061457c85828601613b82565b9150509250929050565b7f4e487b7100000000000000000000000000000000000000000000000000000000600052602260045260246000fd5b600060028204905060018216806145cd57607f821691505b6020821081036145e0576145df614586565b5b50919050565b7f4e487b7100000000000000000000000000000000000000000000000000000000600052603260045260246000fd5b7f4e487b7100000000000000000000000000000000000000000000000000000000600052601160045260246000fd5b600061464f82613b61565b91507fffffffffffffffffffffffffffffffffffffffffffffffffffffffffffffffff820361468157614680614615565b5b600182019050919050565b7f4552433732313a20617070726f76616c20746f2063757272656e74206f776e6560008201527f7200000000000000000000000000000000000000000000000000000000000000602082015250565b60006146e8602183613aba565b91506146f38261468c565b604082019050919050565b60006020820190508181036000830152614717816146db565b9050919050565b7f4552433732313a20617070726f76652063616c6c6572206973206e6f7420746f60008201527f6b656e206f776e6572206f7220617070726f76656420666f7220616c6c000000602082015250565b600061477a603d83613aba565b91506147858261471e565b604082019050919050565b600060208201905081810360008301526147a98161476d565b9050919050565b6000819050919050565b6000819050919050565b60006147df6147da6147d5846147b0565b6147ba565b613f66565b9050919050565b6147ef816147c4565b82525050565b600060208201905061480a60008301846147e6565b92915050565b7f4552433732313a2063616c6c6572206973206e6f7420746f6b656e206f776e6560008201527f72206f7220617070726f76656400000000000000000000000000000000000000602082015250565b600061486c602d83613aba565b915061487782614810565b604082019050919050565b6000602082019050818103600083015261489b8161485f565b9050919050565b7f4552433732313a20696e76616c696420746f6b656e2049440000000000000000600082015250565b60006148d8601883613aba565b91506148e3826148a2565b602082019050919050565b60006020820190508181036000830152614907816148cb565b9050919050565b7f4552433732313a2061646472657373207a65726f206973206e6f74206120766160008201527f6c6964206f776e65720000000000000000000000000000000000000000000000602082015250565b600061496a602983613aba565b91506149758261490e565b604082019050919050565b600060208201905081810360008301526149998161495d565b9050919050565b60006149ab82613b61565b91506149b683613b61565b92508282039050818111156149ce576149cd614615565b5b92915050565b60006149df82613f66565b91506149ea83613f66565b9250828201905067ffffffffffffffff811115614a0a57614a09614615565b5b92915050565b7f537562736372697074696f6e206e6f742052656e657761626c65000000000000600082015250565b6000614a46601a83613aba565b9150614a5182614a10565b602082019050919050565b60006020820190508181036000830152614a7581614a39565b9050919050565b7f506c656173652073656e64207468652061736b696e6720707269636520696e6f60008201527f7264657220746f20636f6d706c65746520746865207075726368617365000000602082015250565b6000614ad8603d83613aba565b9150614ae382614a7c565b604082019050919050565b60006020820190508181036000830152614b0781614acb565b9050919050565b600081905092915050565b6000614b2482613aaf565b614b2e8185614b0e565b9350614b3e818560208601613acb565b80840191505092915050565b6000614b568285614b19565b9150614b628284614b19565b91508190509392505050565b6000614b7982613b61565b9150614b8483613b61565b9250828201905080821115614b9c57614b9b614615565b5b92915050565b7f4f6e6c79204e4654206f776e65722063616e20706572666f726d207468697320600082015250565b6000614bd8602083613aba565b9150614be382614ba2565b602082019050919050565b60006020820190508181036000830152614c0781614bcb565b9050919050565b7f4552433732313a207472616e736665722066726f6d20696e636f72726563742060008201527f6f776e6572000000000000000000000000000000000000000000000000000000602082015250565b6000614c6a602583613aba565b9150614c7582614c0e565b604082019050919050565b60006020820190508181036000830152614c9981614c5d565b9050919050565b7f4552433732313a207472616e7366657220746f20746865207a65726f2061646460008201527f7265737300000000000000000000000000000000000000000000000000000000602082015250565b6000614cfc602483613aba565b9150614d0782614ca0565b604082019050919050565b60006020820190508181036000830152614d2b81614cef565b9050919050565b7f4552433732313a206d696e7420746f20746865207a65726f2061646472657373600082015250565b6000614d68602083613aba565b9150614d7382614d32565b602082019050919050565b60006020820190508181036000830152614d9781614d5b565b9050919050565b7f4552433732313a20746f6b656e20616c7265616479206d696e74656400000000600082015250565b6000614dd4601c83613aba565b9150614ddf82614d9e565b602082019050919050565b60006020820190508181036000830152614e0381614dc7565b9050919050565b7f45524337323155524953746f726167653a2055524920736574206f66206e6f6e60008201527f6578697374656e7420746f6b656e000000000000000000000000000000000000602082015250565b6000614e66602e83613aba565b9150614e7182614e0a565b604082019050919050565b60006020820190508181036000830152614e9581614e59565b9050919050565b60008190508160005260206000209050919050565b60006020601f8301049050919050565b600082821b905092915050565b600060088302614efe7fffffffffffffffffffffffffffffffffffffffffffffffffffffffffffffffff82614ec1565b614f088683614ec1565b95508019841693508086168417925050509392505050565b6000614f3b614f36614f3184613b61565b6147ba565b613b61565b9050919050565b6000819050919050565b614f5583614f20565b614f69614f6182614f42565b848454614ece565b825550505050565b600090565b614f7e614f71565b614f89818484614f4c565b505050565b5b81811015614fad57614fa2600082614f76565b600181019050614f8f565b5050565b601f821115614ff257614fc381614e9c565b614fcc84614eb1565b81016020851015614fdb578190505b614fef614fe785614eb1565b830182614f8e565b50505b505050565b600082821c905092915050565b600061501560001984600802614ff7565b1980831691505092915050565b600061502e8383615004565b9150826002028217905092915050565b61504782613aaf565b67ffffffffffffffff8111156150605761505f6141a4565b5b61506a82546145b5565b615075828285614fb1565b600060209050601f8311600181146150a85760008415615096578287015190505b6150a08582615022565b865550615108565b601f1984166150b686614e9c565b60005b828110156150de578489015182556001820191506020850194506020810190506150b9565b868310156150fb57848901516150f7601f891682615004565b8355505b6001600288020188555050505b505050505050565b61511981613c5b565b82525050565b600061513a615135615130846147b0565b6147ba565b613b61565b9050919050565b61514a8161511f565b82525050565b600081549050919050565b600082825260208201905092915050565b60008190508160005260206000209050919050565b60008160001c9050919050565b600073ffffffffffffffffffffffffffffffffffffffff82169050919050565b60006151c16151bc83615181565b61518e565b9050919050565b60006151d482546151ae565b9050919050565b6000600182019050919050565b60006151f382615150565b6151fd818561515b565b93506152088361516c565b8060005b838110156152405761521d826151c8565b6152278882613cb7565b9750615232836151db565b92505060018101905061520c565b5085935050505092915050565b600061010082019050615263600083018b614024565b615270602083018a615110565b61527d6040830189615110565b61528a6060830188615141565b818103608083015261529c81876151e8565b90506152ab60a0830186614024565b81810360c08301526152bd8185613b06565b905081810360e08301526152d18184613b06565b90509998505050505050505050565b7f4552433732313a20617070726f766520746f2063616c6c657200000000000000600082015250565b6000615316601983613aba565b9150615321826152e0565b602082019050919050565b6000602082019050818103600083015261534581615309565b9050919050565b7f4552433732313a207472616e7366657220746f206e6f6e20455243373231526560008201527f63656976657220696d706c656d656e7465720000000000000000000000000000602082015250565b60006153a8603283613aba565b91506153b38261534c565b604082019050919050565b600060208201905081810360008301526153d78161539b565b9050919050565b600081519050919050565b600082825260208201905092915050565b6000615405826153de565b61540f81856153e9565b935061541f818560208601613acb565b61542881613af5565b840191505092915050565b60006080820190506154486000830187613bf6565b6154556020830186613bf6565b6154626040830185614024565b818103606083015261547481846153fa565b905095945050505050565b60008151905061548e81613a20565b92915050565b6000602082840312156154aa576154a96139ea565b5b60006154b88482850161547f565b91505092915050565b7f4e487b7100000000000000000000000000000000000000000000000000000000600052601260045260246000fdfea2646970667358221220e8317b24553101e46ae726a3e00da4464dbd15a7c93c1e59243bb5895d215a5b64736f6c63430008120033",
  "linkReferences": {},
  "deployedLinkReferences": {}
}